:020000021000EC
:10E000004BC0000066C0000064C0000062C0000099
:10E0100060C000005EC000005CC000005AC000008C
:10E0200058C0000056C0000013C1000052C00000DC
:10E0300050C000004EC000004CC000004AC00000AC
:10E0400048C0000046C0000044C0000042C00000BC
:10E050005BC200003EC000003CC000003AC00000AF
:10E0600038C0000036C0000034C0000032C00000DC
:10E0700030C000002EC000002CC000002AC00000EC
:10E0800028C0000026C0000024C0000022C00000FC
:10E0900020C000001EC0000011241FBECFEFD0E240
:10E0A000DEBFCDBF11E0A0E0B1E0E6EBFDEE01E0A8
:10E0B0000BBF02C007900D92A83DB107D9F721E030
:10E0C000A8EDB1E001C01D92A63FB207E1F72AD248
:10E0D00070C696CF8091ED0187FF0FC08091E80058
:10E0E00082FD04C08EB38111F9CF10C08091E80089
:10E0F0008B770AC08EB3882349F08091E80080FFB7
:10E10000F9CF8091E8008E778093E80008958F70B2
:10E110008093E900EBEEF0E0808181608083EDEE9A
:10E12000F0E010826093EC0040838091EE00881F45
:10E130008827881F0895FC016081611102C081E079
:10E1400008952481A181B2819381862F8F708730B9
:10E1500010F080E00895223010F442E001C046E063
:10E16000E8E0F0E020E0EA17FB0720F42F5FEE0F75
:10E17000FF1FF9CF2295207F422B50E4959F9001FD
:10E180001124661F6627661F622BC1DF8111D7CF5E
:10E19000E0CF2091F3013091F4012617370748F0C2
:10E1A0006115710539F42091E8002E772093E8007D
:10E1B00001C0B901FC0120E06115710561F18EB368
:10E1C0008823D9F18530D9F18091E80083FD39C0E9
:10E1D0008091E80082FD2BC08091E80080FFECCFA9
:10E1E0008091F2009091F3006115710551F0883033
:10E1F000910538F421912093F10061507109019645
:10E20000F3CF21E0089709F020E08091E8008E77B5
:10E210008093E800D1CF2111D2CF09C08EB38823DB
:10E2200061F0853061F08091E80083FD0AC0809143
:10E23000E80082FFF3CF80E0089582E0089583E054
:10E24000089581E008959BB19F70892B8BB9089543
:10E250001F920F920FB60F9211240BB60F922F93AD
:10E260003F934F935F936F937F938F939F93AF935E
:10E27000BF93EF93FF938091DA0080FF1CC08091E1
:10E28000D80080FF18C08091DA008E7F8093DA007A
:10E290008091D90080FF0BC08CE089BD8EE089BDE4
:10E2A00009B400FEFDCF81E08EBB80EA03C019BC3B
:10E2B0001EBA80E1C8DF8091E10080FF16C0809126
:10E2C000E20080FF12C08091E2008E7F8093E20026
:10E2D0008091E20080618093E2008091D8008062AA
:10E2E0008093D80019BC85E08EBB8091E10084FF4B
:10E2F0002DC08091E20084FF29C08CE089BD8EE0B2
:10E3000089BD09B400FEFDCF8091D8008F7D809338
:10E31000D8008091E1008F7E8093E1008091E2003F
:10E320008F7E8093E2008091E20081608093E20022
:10E330008091F501882311F084E007C08091E3000B
:10E3400087FD02C081E001C083E08EBB8091E100C7
:10E3500083FF20C08091E20083FF1CC08091E10018
:10E36000877F8093E10082E08EBB1092F50180915F
:10E37000E1008E7F8093E1008091E2008E7F8093A8
:10E38000E2008091E20080618093E20042E060E080
:10E3900080E0BDDEFF91EF91BF91AF919F918F9192
:10E3A0007F916F915F914F913F912F910F900BBE95
:10E3B0000F900FBE0F901F9018959FB7F89407B657
:10E3C00000FCFDCFF999FECF809529E0E1E0F0E077
:10E3D000082E20935700E8959FBF0895E1E0F0E0F4
:10E3E00089E0809357008491089529E0FC012093EF
:10E3F00057008491089521E2FC01209357008491F5
:10E40000089507B600FCFDCFF999FECF21E00A017F
:10E41000FB0180935B0020935700E8951124089539
:10E42000611520EE720721E08207910510F421E0CA
:10E43000611120E020FF16C02FB7F89407B600FC4A
:10E44000FDCFF999FECF35E0FB0180935B0030935F
:10E450005700E89507B600FCFDCF91E19093570077
:10E46000E8952FBF0895CF92DF92EF92FF928091AF
:10E47000D901882309F1C090E901D090EA01E09028
:10E48000EB01F090EC01CC246091E1017091E2018C
:10E490008091E3019091E401C616D706E806F906DB
:10E4A00059F0BEDFC092E101D092E201E092E301B7
:10E4B000F092E4011092D901FF90EF90DF90CF909D
:10E4C0000895611520EE720721E08207910510F48E
:10E4D00021E0611120E020FF16C02FB7F89407B6A5
:10E4E00000FCFDCFF999FECF33E0FB0180935B0088
:10E4F00030935700E89507B600FCFDCF91E190936B
:10E500005700E8952FBF08951F920F920FB60F92F4
:10E5100011248F9380E389B98F910F900FBE0F90D4
:10E520001F90189584B7877F84BF0FB6F894A8957D
:10E5300080916000886180936000109260000FBE3F
:10E5400090E080E80FB6F8948093610090936100AA
:10E550000FBEC1E0C5BF82E085BF8AB1806F8AB9B6
:10E560008BB18F708BB98091D8008F7E8093D8004B
:10E570008091D70081608093D700C093D8018091AB
:10E58000D8008C7F8093D8001092E2001092DA00BD
:10E590001092E1008091D8008F778093D80080910D
:10E5A000D80080688093D8008091D8008F7D8093B8
:10E5B000D8008091D70080688093D70019BC1EBA1C
:10E5C0001092F5018091E0008B7F8093E0008091B4
:10E5D000D80081608093D80042E060E080E097DD61
:10E5E0008091E1008E7F8093E1008091E200816064
:10E5F0008093E2008091E20088608093E200809145
:10E60000E0008E7F8093E0008091D800806180934D
:10E61000D800C0936F0083E08093810080E113DE17
:10E620007894BB24B394A4E0AA2E99249394B6E0E2
:10E630008B2E01E0C4E07C2E82E0682E80910001E8
:10E64000882309F4B3C28EB3843019F0C0E0D0E05F
:10E6500019C0809107018F708093E9008091E800D4
:10E6600082FFF4CFC091F200D091F300209731F4F3
:10E670008091E8008B778093E80004C0C091F2009D
:10E68000D091F300CC2309F47AC080E2DCDD1C2FAA
:10E69000F3E05F2E8EB3843011F0CFEF1FC0809176
:10E6A00007018F708093E9008091E80082FFF5CF29
:10E6B0008091F2009091F300892B19F0C091F10044
:10E6C00002C0CFEFDFEF8091F2009091F300892B31
:10E6D00029F48091E8008B778093E8002091DA019B
:10E6E000222311F0CA33C9F41092E0018091E501B0
:10E6F0009091E601A091E701B091E8018093E901D2
:10E700009093EA01A093EB01B093EC011092DD012C
:10E71000CA3381F50093DA012DC08FEB8C0F863060
:10E7200010F4C75303C0C053CA3020F59091DC01E8
:10E7300030E1939FC00111248C2B8093DC019091D8
:10E74000DD019B259093DD01911114C03091E00112
:10E75000263009F4F8C2380F3093E001233009F471
:10E760005EC208F057C2213009F036C28093DF0143
:10E770006092DA01115009F08DCF80E664DD8EB32E
:10E78000843009F066C080910201982F9F709093A9
:10E79000E9002091E80020FF25C02EB3243011F5B8
:10E7A0009093E9002091F2003091F300232BD1F0F7
:10E7B0002091E8009091E8009E779093E80025FD75
:10E7C00011C02091E4003091E50095E6A901209167
:10E7D000EC0020FFDFC22091E80020FDDFC22EB355
:10E7E0002111C5C290910F01992399F190910701D0
:10E7F0009F7021E030E0A901092E01C0440F0A9466
:10E80000EAF74093EA001092EA008F70082E01C0E8
:10E81000220F0A94EAF72093EA001092EA009093FC
:10E82000E9009091EB0090619093EB009091EB00E8
:10E8300098609093EB008093E9008091EB008061F9
:10E840008093EB008091EB0088608093EB00109246
:10E850000F018EB3882309F4F1CEC091E900CF7087
:10E860009091EC00892F817090FD80E8C82B109268
:10E87000E9008091E80083FF95C1EDEEF1E0809121
:10E88000F100819341E0E53FF407C9F78091E8008A
:10E8900083FF5AC08091010190E02091F1013091F5
:10E8A000F2012817390709F04FC08091EE0181303D
:10E8B00041F118F08230E1F147C08091ED01813AD9
:10E8C00009F042C08091E800877F8093E800809142
:10E8D000E80080FD04C08EB38111F9CF35C080916E
:10E8E0000C0190910D01FC0101900020E9F7319796
:10E8F000BF01681B790B7093F1006093F10049DC54
:10E9000015C08091ED01813AF9F48091E800877F8C
:10E910008093E8008091E80080FD04C08EB38111EF
:10E92000F9CF12C080910E018093F100D3DB0CC0AF
:10E930008091ED01813241F48091E800877F8093DE
:10E94000E800C8DB90920F018091E80083FF1CC1B2
:10E950008091ED019091EE01953009F46FC030F493
:10E96000913071F168F0933059F10EC1983009F48B
:10E97000C0C0993009F4CDC0963009F005C17FC000
:10E98000803899F0823809F0FFC08091F1018F70D2
:10E99000873008F0F9C08093E9008091EB0085FB97
:10E9A000882780F91092E90001C080E09091E8008A
:10E9B000977F9093E8008093F1001092F100A5C03A
:10E9C000282F2D7F09F0E0C0823009F0DDC0809152
:10E9D000EF0181112AC08091F1018F702FEF280F74
:10E9E000263008F0D1C08093E9002091EB0020FF91
:10E9F0001CC0933021F48091EB00806214C0909190
:10EA0000EB0090619093EB0021E030E0690102C0DF
:10EA1000CC0CDD1C8A95E2F7C092EA001092EA0065
:10EA20008091EB0088608093EB001092E900809168
:10EA3000E800877F8093E8004DDBA6C08111A4C069
:10EA4000D091EF01DF778091E30080788D2B809368
:10EA5000E3008091E800877F8093E8003BDB8091B2
:10EA6000E80080FFFCCF8091E30080688093E300A2
:10EA7000D11102C082E001C083E08EBB85C0805806
:10EA8000823008F081C02091EF013091F001832F96
:10EA900099278230910539F08330910549F001972B
:10EAA00009F072C081C160E270E082E691E015C0B9
:10EAB00033272330310508F067C0F901EE0FFF1F3F
:10EAC000E956FE4F80819181F901EC56FE4F60813D
:10EAD00070E06115710509F457C02091E800277FA7
:10EAE0002093E80056DB8091E8008B778093E80064
:10EAF0004BC0803809F048C08091E800877F809340
:10EB0000E8008091F5018093F1008091E8008E7714
:10EB100091CF811139C08091EF019091F001992737
:10EB2000029794F58091E800877F8093E800D09168
:10EB3000EF01D093F501CEDADD2311F0AEBA08C0B3
:10EB40008091E30087FD02C081E001C084E08EBBBC
:10EB500010920F0110920E0188E180930E0182E065
:10EB60008093050180930A0182E091E0E4DA882332
:10EB700019F087E091E0DFDA1092DA01811102C02A
:10EB800080E901C080E65FDB8091E80083FF0AC076
:10EB90008091E800877F8093E8008091EB0080629D
:10EBA0008093EB00CF70C093E90046CD8FEC97E0E7
:10EBB0000197F1F700C000008091E0008160809330
:10EBC000E0009CE088E10FB6F894A895809360007F
:10EBD0000FBE90936000FFCF223009F0C5C0C82F50
:10EBE000D0E0DC2FCC278091E9019091EA01A0913F
:10EBF000EB01B091EC018C0F9D1FA11DB11D809305
:10EC0000E9019093EA01A093EB01B093EC015092DB
:10EC1000DA01B0CD2430E1F0253031F1A5C04091CA
:10EC2000E9015091EA016091EB017091EC016A01F8
:10EC30007B01C80ED11CE11CF11CC092E901D092ED
:10EC4000EA01E092EB01F092EC017092DA0192CDD0
:10EC50008093DE018091DF01811102C086E001C056
:10EC600085E08093DA0186CD9091DF0191509093F9
:10EC7000DF01C090E901D090EA01E090EB01F09053
:10EC8000EC01C11420EED20621E0E206F10428F0E6
:10EC90001092DA011092D9016DCD90FF03C08093DC
:10ECA000DB0168CDC82FD0E0DC2FCC278091DB01C1
:10ECB000C82B8091DE01823031F1843079F18111ED
:10ECC0003BC08091D90181110BC06091E10170912D
:10ECD000E2018091E3019091E401F3DB0093D9011B
:10ECE000AE01C701B6018DDB32E0C30ED11CE11CC1
:10ECF000F11CC092E901D092EA01E092EB01F0929E
:10ED0000EC01B1DB19C0CE01A0E0B0E064E0880FF7
:10ED1000991FAA1FBB1F6A95D1F706C0CE01A0E0BC
:10ED2000B0E0DC01992788278093E5019093E60104
:10ED3000A093E701B093E8018091DF0181111ACD22
:10ED40008092DA0117CD90E03195232F30E08217C1
:10ED5000930709F00FCD87DB8091DE01813009F048
:10ED600009CD1092000106CD1092DA0103CD2530B5
:10ED700009F438CD2091EB0025FD34CD2091E4003D
:10ED80003091E5002417350709F421CD915009F0A1
:10ED90001DCD28CD2091E80022FF21CD9091E800E3
:10EDA0009E779093E8001ECD62E170E082E891E0EA
:06EDB00094CEF894FFCFA1
:10EDB6000100834000000104400000019D010000A5
:10EDC60030034C0055004600410020005000720000
:10EDD60069006E00740065007200200042006F003A
:10EDE6006F0074006C006F006100640065007200C3
:10EDF60000001A034C0055004600410020004C005C
:10EE0600690062007200610072007900000004036C
:10EE160009040902200001010080320904000002F1
:10EE260007010200070583024000050705040240AA
:10EE360000051201100100000008EB036B20010021
:10EE460001020001041A305E01420110014D4647DD
:10EE56003A47656E657269633B4D444C3A47656E49
:10EE6600657269635F2F5F546578745F4F6E6C7966
:10EE76003B434D443A313238342E343B434C533ABB
:08EE86005052494E5445520060
:10FFA0000C9461F20C9410F20C9401F20C94FBF19D
:10FFB0000C94F5F10C94EEF10C94DDF10895089594
:06FFC00008950895089564
:10FFE000DFCFE0CFE1CFE2CFE3CFE4CFE5CFE6CF85
:08FFF000E6CFE6CFE6CFE6CF35
:08FFF80000E0010020DFFBDC4A
:040000031000E00009
:00000001FF
